:020000040800F2
:10000000D023002089010008990500087B0500081D
:100010009505000839020008290B000800000000BF
:100020000000000000000000000000001D070008A4
:1000300041040008000000009B05000809080008B2
:10004000A3010008A3010008A3010008A301000800
:10005000A3010008A3010008A3010008A3010008F0
:10006000A3010008A3010008A3010008A3010008E0
:10007000A3010008A3010008A3010008A3010008D0
:10008000A3010008A3010008A3010008A3010008C0
:10009000A3010008A3010008A3010008A3010008B0
:1000A000A3010008A3010008A3010008A3010008A0
:1000B000A3010008A3010008A3010008A301000890
:1000C000A3010008A3010008A3010008A301000880
:1000D000A3010008A50A0008A3010008A301000865
:1000E000A3010008A3010008A301000800F002F822
:1000F00000F03AF80AA090E8000C82448344AAF188
:100100000107DA4501D100F02FF8AFF2090EBAE885
:100110000F0013F0010F18BFFB1A43F0010318473B
:10012000B80C0000D80C0000103A24BF78C878C181
:10013000FAD8520724BF30C830C144BF04680C60ED
:10014000704700000023002400250026103A28BF35
:1001500078C1FBD8520728BF30C148BF0B60704739
:100160001FB51FBD10B510BD00F033F81146FFF7E5
:10017000F7FF00F0C6FD00F051F803B4FFF7F2FFFF
:1001800003BC00F0D3FC0000094880470948004741
:10019000FEE7FEE7FEE7FEE7FEE7FEE7FEE7FEE737
:1001A000FEE7FEE704480549054A064B7047000094
:1001B0000D080008ED000008D0030020D023002027
:1001C000D0130020D013002070477047704770474D
:1001D0007047754600F02CF8AE4605006946534658
:1001E00020F00700854618B020B5FFF7DBFFBDE81B
:1001F00020404FF000064FF000074FF000084FF08E
:10020000000B21F00701AC46ACE8C009ACE8C0091E
:10021000ACE8C009ACE8C0098D46704710B504468B
:10022000AFF300802046BDE81040FFF7A6BF0000F6
:10023000004870476C03002000BFFEE70146002025
:1002400004E0002241F82020421CD0B23F28F8DB15
:100250007047000000F0805111B10349086001E0CF
:100260000249486070470000040402400000024058
:1002700021B1026842F00102026004E002684FF618
:10028000FE731A400260704701684FF6FE7211401B
:1002900001600021016041608160C1604B4988427A
:1002A00008D14A490839496841F00F01474A083ADC
:1002B00051608AE045491431884208D143490839E0
:1002C000496841F0F001414A083A51607DE03F49F8
:1002D0002831884208D13D490839496841F47061A4
:1002E0003A4A083A516070E038493C31884208D1B6
:1002F00036490839496841F47041344A083A516036
:1003000063E032495031884208D1304908394968A0
:1003100041F470212D4A083A516056E02B4964316E
:10032000884208D129490839496841F47001274AAF
:10033000083A516049E025497831884208D123497B
:100340000839496841F07061204A083A51603CE040
:100350001F49884206D1011F096841F00F01021FA1
:10036000116032E01A491431884208D11849091F36
:10037000096841F0F001164A121F116025E0144986
:100380002831884208D11249091F096841F4706177
:100390000F4A121F116018E00D493C31884208D104
:1003A0000B49091F096841F47041094A121F116085
:1003B0000BE007495031884207D10549091F0968F8
:1003C00041F47021024A121F116070470800024078
:1003D0000804024001460020002201F0805313B1BE
:1003E000054B1A6801E0054B1A6802EA01030BB1DC
:1003F000012000E00020704700040240000002409D
:1004000010B50022026847F6F0739A430C6A8B68B5
:1004100023430C6923434C6923438C692343CC69F0
:1004200023434C6A23438C6A23431A430260CB68FC
:1004300043600B6883604B68C36010BD41607047C8
:100440007047000010B53F2908DC3F2A06DC044C49
:1004500004EBC104A45C641E40F8243010BD00000D
:10046000000000202DE9F041024600250026002072
:1004700000230024002791F803C00CF00F0591F829
:1004800003C00CF0100CBCF1000F03D091F802C0B7
:100490004CEA050591F800C0BCF1000F31D014689A
:1004A00000202BE04FF0010C0CFA00F3B1F800C073
:1004B0000CEA03069E4220D183004FF00F0C0CFA89
:1004C00003F7BC4305FA03FC4CEA040491F803C0AB
:1004D000BCF1280F06D14FF0010C0CFA00FCC2F859
:1004E00014C00AE091F803C0BCF1480F05D14FF0E9
:1004F000010C0CFA00FCC2F810C0401C0828D1D333
:100500001460B1F800C0BCF1FF0F34DD5468002066
:100510002EE000F1080C4FF0010808FA0CF3B1F8D6
:1005200000C00CEA03069E4221D183004FF00F0C5D
:100530000CFA03F7BC4305FA03FC4CEA040491F8F7
:1005400003C0BCF1280F05D100F1080C08FA0CF823
:10055000C2F8148091F803C0BCF1480F07D100F134
:10056000080C4FF0010808FA0CF8C2F81080401C83
:100570000828CED35460BDE8F08100BFFEE70146F5
:10058000002004E0002241F82020421CD0B23F2885
:10059000F8DB704700BFFEE77047704729B1064A95
:1005A00052690243044B5A6104E0034A5269824390
:1005B000014B5A61704700000010024029B1064A01
:1005C000D2690243044BDA6104E0034AD2698243F0
:1005D000014BDA61704700000010024029B1064A61
:1005E00092690243044B9A6104E0034A9269824390
:1005F000014B9A6170470000001002402DE9F04164
:100600000746402640F22B68002449E0002513E00D
:10061000C6F1400057F82000C5F10F01C84000F0B6
:10062000010008B1322000E019203A4921F81400F5
:10063000601C84B2681CC5B2082DE9DB002513E0FC
:10064000C6F1400057F82000C5F11701C84000F07E
:10065000010008B1322000E019202E4921F81400D1
:10066000601C84B2681CC5B2082DE9DB002513E0CC
:10067000C6F1400057F82000C5F10701C84000F05E
:10068000010008B1322000E01920224921F81400AD
:10069000601C84B2681CC5B2082DE9DB701EC6B2AE
:1006A000002EB3D1C6F1400057F82000C0F300403F
:1006B00008B1322000E01920164921F81400601C0E
:1006C00084B205E00020134921F81400601C84B2B4
:1006D0004445F7DB41461048FFF7B0FE01210E48C4
:1006E000FFF7C6FD0121880700F0C0F800BF2020F9
:1006F000FFF770FE0028FAD000214FF0804000F094
:10070000B5F800210448FFF7B3FD2020FFF7A2FD54
:10071000BDE8F0814C0000201C000240704710B57D
:1007200000F002F810BD00000CB500200190009010
:100730003348006840F480303149086000BF3048D9
:10074000006800F4003000900198401C019000986F
:1007500018B90198B0F5A06FF1D12948006800F4EC
:10076000003010B10120009001E0002000900098BE
:10077000012843D12348006840F010002149086057
:100780000846006820F0030008600846006840F052
:10079000020008601A4840681949486008464068E5
:1007A00048600846406840F48060486008464068F9
:1007B00020F47C1048600846406840F4E810486027
:1007C0000846006840F08070086000BF0C48006870
:1007D00000F000700028F9D00948406820F00300BC
:1007E000074948600846406840F00200486000BF82
:1007F0000348406800F00C000828F9D10CBD000047
:1008000000100240002002407047000010B513485D
:10081000006840F00100114908600846406810492E
:1008200008400E494860084600680E4908400B49D8
:1008300008600846006820F4802008600846406888
:1008400020F4FE0048604FF41F008860FFF767FF48
:100850004FF000600449086010BD00000010024025
:100860000000FFF8FFFFF6FE08ED00E021B102886E
:1008700042F00102028004E002884FF6FE731A4043
:10088000028070471AB183890B43838102E0838918
:100890008B4383817047000070B500240022002341
:1008A000058C4FF6FE7635400584028C8388048BD8
:1008B0004FF68F752C40B51E2C400D882C43751EAD
:1008C0002A400D892A434D882A43144DA8420BD053
:1008D000134DA84208D0134DA84205D0124DA8428E
:1008E00002D0124DA84213D14FF6F7752A404D8918
:1008F0002A434FF6FB752A408D882A434FF6FF6541
:100900002B404FF6FF552B408D892B43CD892B4330
:1009100083800483CD888586028470BD002C0140CD
:1009200000340140004001400044014000480140C3
:10093000002202881D4B98420ED01D4B98420BD0CE
:10094000B0F1804F08D01B4B984205D01A4B98420B
:1009500002D01A4B984204D14FF68F731A404B883D
:100960001A43174B984207D0164B984204D04FF6C3
:10097000FF431A40CB881A4302808B8883850B88FB
:1009800003850A4B98420BD0094B984208D00E4B76
:10099000984205D00D4B984202D00D4B984201D1A0
:1009A0000B7A03860123838270470000002C0140EC
:1009B000003401400004004000080040000C0040EA
:1009C000001000400014004000400140004401407D
:1009D0000048014000B593B001210420FFF7FEFD5F
:1009E0000120ADF82C0018208DF82F0003208DF881
:1009F0002E000BA92748FFF735FD01210846FFF718
:100A0000DDFD5920ADF844000020ADF84000ADF800
:100A10004600ADF8420010A94FF08040FFF788FF74
:100A20006020ADF830000120ADF832000020ADF8B4
:100A30003600ADF838000CA94FF08040FFF72CFFCE
:100A400001210846FFF7AAFD1348FFF71DFC1348D4
:100A5000009013480190102002902A20039000205B
:100A600004908020059040000690800007900020B0
:100A700008904FF40050099000200A9069460648FB
:100A8000FFF7BEFC012211028805FFF7FBFE13B041
:100A900000BD0000000801401C000240340000407E
:100AA0004C0000201D49098801F0200111B31B49A9
:100AB000091D0988C8B21A49098801F40041C9B959
:100AC0001749098801F4804161B10A2803D0002147
:100AD000134A118020E01249098841F40041104A6C
:100AE000118019E00D2806D10D49098841F4804193
:100AF0000B4A118010E00A490988C1F30D01094A27
:100B0000505407490988491C054A11801146098833
:100B1000C72901DD00211180704700000038014025
:100B200048000020A402002000BFFEE700BF70477D
:100B300010B5017042704FF4C84343604FF47F44D6
:100B4000846048F62234C46044F20D24046110BD70
:100B50004FF0E021096921F004014FF0E02211611A
:100B6000C21700EB5272C2F3C702074B1A70194644
:100B7000097801EB4102C2EBC1114FF6FF7202EAA4
:100B8000C101024A1180704740000020420000204D
:100B900001460D4A12884A434FF0E0235A61002271
:100BA0009A6101221A6100BF4FF0E022106900F043
:100BB00001021AB100F48032002AF5D000224FF071
:100BC000E0231A619A6170474200002070B5064622
:100BD0000D4614463046FFF731FB8BE004EB8400F2
:100BE00005EB8000436804EB840005EB800042784D
:100BF00004EB840015F820103046FFF723FC04EBCB
:100C0000840005EB80004078401C07280DDD04EBD4
:100C1000840005EB8000836804EB840015F8201045
:100C200000223046FFF70EFC12E004EB840005EBD7
:100C30008000836804EB840005EB80004078401C52
:100C4000C2B204EB840015F820103046FFF7FAFB1F
:100C500004EB840005EB80004078801C07280DDD44
:100C600004EB840005EB8000C36804EB840015F8F6
:100C7000201000223046FFF7E5FB12E004EB840071
:100C800005EB8000C36804EB840005EB800040782E
:100C9000801CC2B204EB840015F820103046FFF728
:100CA000D1FB04EB840005EB80004078C01C0728D2
:100CB0000DDD04EB840005EB8000036904EB840088
:100CC00015F8201000223046FFF7BCFB12E004EBC1
:100CD000840005EB8000036904EB840005EB8000D1
:100CE0004078C01CC2B204EB840015F820103046D6
:100CF000FFF7A8FB201EA4F10101CCB27FF46EAF78
:100D000070BDE8B04820FFF723FFFFF763FE28A877
:100D1000FFF735FC072200216846FFF709FF022292
:100D2000012105A8FFF704FF052202210AA8FFF709
:100D3000FFFE072203210FA8FFF7FAFE0422114647
:100D400014A8FFF7F5FE0122052119A8FFF7F0FE10
:100D5000062211461EA8FFF7EBFE0122072123A859
:100D6000FFF7E6FE0822694628A8FFF72FFF28A80C
:100D7000FFF744FC6420FFF70BFF0EE008216846F4
:100D800000F00CF80822694628A8FFF71FFF28A8E2
:100D9000FFF734FC6420FFF7FBFEEFE716E001EB02
:100DA000810200EB82025278521E01EB810300EBBC
:100DB00083035A7001EB810200EB820252782AB958
:100DC000072201EB810300EB83035A700A1EA1F195
:100DD0000103D9B2E3D17047F80D000800000020EC
:100DE0004C00000028010008440E00084C000020C0
:100DF00084230000440100083938292819180908FB
:100E00003A372A271A170A073B362B261B160B06DA
:100E10003C352C251C150C053D342D241D140D04CA
:100E20003E332E231E130E033F322F221F120F02BA
:100E300040313021201110010000000000000000AE
:040E400000000000AE
:04000005080000ED02
:00000001FF
